{
  "contractName": "Orders2",
  "abi": [
    {
      "anonymous": false,
      "inputs": [
        {
          "indexed": true,
          "internalType": "address",
          "name": "user",
          "type": "address"
        },
        {
          "indexed": false,
          "internalType": "uint256",
          "name": "order_id",
          "type": "uint256"
        }
      ],
      "name": "OrderCreated",
      "type": "event"
    },
    {
      "constant": true,
      "inputs": [
        {
          "internalType": "address",
          "name": "",
          "type": "address"
        }
      ],
      "name": "orderCount",
      "outputs": [
        {
          "internalType": "uint256",
          "name": "",
          "type": "uint256"
        }
      ],
      "payable": false,
      "stateMutability": "view",
      "type": "function"
    },
    {
      "constant": true,
      "inputs": [],
      "name": "recipient",
      "outputs": [
        {
          "internalType": "address payable",
          "name": "",
          "type": "address"
        }
      ],
      "payable": false,
      "stateMutability": "view",
      "type": "function"
    },
    {
      "constant": true,
      "inputs": [
        {
          "internalType": "address",
          "name": "",
          "type": "address"
        },
        {
          "internalType": "uint256",
          "name": "",
          "type": "uint256"
        }
      ],
      "name": "userOrders",
      "outputs": [
        {
          "internalType": "uint256",
          "name": "order_id",
          "type": "uint256"
        },
        {
          "internalType": "uint256",
          "name": "order_cost",
          "type": "uint256"
        }
      ],
      "payable": false,
      "stateMutability": "view",
      "type": "function"
    },
    {
      "constant": false,
      "inputs": [
        {
          "internalType": "uint256[]",
          "name": "_item_ids",
          "type": "uint256[]"
        },
        {
          "internalType": "uint256[]",
          "name": "_item_quantities",
          "type": "uint256[]"
        },
        {
          "internalType": "uint256[]",
          "name": "_item_cost",
          "type": "uint256[]"
        }
      ],
      "name": "createOrder",
      "outputs": [],
      "payable": true,
      "stateMutability": "payable",
      "type": "function"
    },
    {
      "constant": true,
      "inputs": [
        {
          "internalType": "uint256",
          "name": "_order_id",
          "type": "uint256"
        }
      ],
      "name": "displayOrder",
      "outputs": [
        {
          "internalType": "uint256",
          "name": "order_id",
          "type": "uint256"
        },
        {
          "internalType": "uint256",
          "name": "order_cost",
          "type": "uint256"
        },
        {
          "internalType": "uint256[]",
          "name": "items",
          "type": "uint256[]"
        },
        {
          "internalType": "uint256",
          "name": "total_order_count",
          "type": "uint256"
        }
      ],
      "payable": false,
      "stateMutability": "view",
      "type": "function"
    }
  ],
  "bytecode": "0x6080604052600280546001600160a01b03191673a549654aff0a201be3061118497594e17316a1fc17905534801561003657600080fd5b50610948806100466000396000f3fe60806040526004361061004a5760003560e01c806366d003ac1461004f578063713d856b14610080578063856652e9146100c55780639f632ae414610117578063c2744be1146102c4575b600080fd5b34801561005b57600080fd5b50610064610357565b604080516001600160a01b039092168252519081900360200190f35b34801561008c57600080fd5b506100b3600480360360208110156100a357600080fd5b50356001600160a01b0316610366565b60408051918252519081900360200190f35b3480156100d157600080fd5b506100fe600480360360408110156100e857600080fd5b506001600160a01b038135169060200135610378565b6040805192835260208301919091528051918290030190f35b6102c26004803603606081101561012d57600080fd5b81019060208101813564010000000081111561014857600080fd5b82018360208201111561015a57600080fd5b8035906020019184602083028401116401000000008311171561017c57600080fd5b91908080602002602001604051908101604052809392919081815260200183836020028082843760009201919091525092959493602081019350359150506401000000008111156101cc57600080fd5b8201836020820111156101de57600080fd5b8035906020019184602083028401116401000000008311171561020057600080fd5b919080806020026020016040519081016040528093929190818152602001838360200280828437600092019190915250929594936020810193503591505064010000000081111561025057600080fd5b82018360208201111561026257600080fd5b8035906020019184602083028401116401000000008311171561028457600080fd5b9190808060200260200160405190810160405280939291908181526020018383602002808284376000920191909152509295506103b1945050505050565b005b3480156102d057600080fd5b506102ee600480360360208110156102e757600080fd5b503561069d565b6040518085815260200184815260200180602001838152602001828103825284818151815260200191508051906020019060200280838360005b83811015610340578181015183820152602001610328565b505050509050019550505050505060405180910390f35b6002546001600160a01b031681565b60016020526000908152604090205481565b6000602052816000526040600020818154811061039157fe5b600091825260209091206003909102018054600190910154909250905082565b81518351146103f15760405162461bcd60e51b81526004018080602001828103825260258152602001806108ef6025913960400191505060405180910390fd5b3360009081526001602081815260408084208054840190819055848352818520825160608101845285855291825281840186815283518781528086018552938301938452815480870180845592885296859020835160039098020196875551948601949094559051805193949193919261047392600285019290910190610886565b505033600090815260208190526040812080549193509150600019810190811061049957fe5b6000918252602082206003909102019150805b85518110156105395760008582815181106104c357fe5b60200260200101518783815181106104d757fe5b60200260200101516064020190508582815181106104f157fe5b602002602001015185838151811061050557fe5b60209081029190910181015160028701805460018181018355600092835293909120019390935591029290920191016104ac565b50600182018190556203846c670de0b6b3a76400008202049050803410156105a8576040805162461bcd60e51b815260206004820152601760248201527f496e73756666696369656e742066756e64732073656e74000000000000000000604482015290519081900360640190fd5b6002546040516000916001600160a01b03169083908381818185875af1925050503d80600081146105f5576040519150601f19603f3d011682016040523d82523d6000602084013e6105fa565b606091505b5050905080610650576040805162461bcd60e51b815260206004820152601c60248201527f5472616e7366657220746f20726563697069656e74206661696c656400000000604482015290519081900360640190fd5b3360008181526001602090815260409182902054825190815291517fcb0c37c16aa3b0bbb7a817932094d8a20a00996d426a813f067039f0ef87ab079281900390910190a2505050505050565b60008060608133815b6001600160a01b03821660009081526020819052604090205481101561083e576001600160a01b03821660009081526020819052604090208054889190839081106106ed57fe5b9060005260206000209060030201600001541415610836576001600160a01b038216600090815260208190526040902080548290811061072957fe5b600091825260208083206003909202909101546001600160a01b038516835290829052604090912080548390811061075d57fe5b906000526020600020906003020160010154600080856001600160a01b03166001600160a01b03168152602001908152602001600020838154811061079e57fe5b906000526020600020906003020160020160016000866001600160a01b03166001600160a01b03168152602001908152602001600020548180548060200260200160405190810160405280929190818152602001828054801561082057602002820191906000526020600020905b81548152602001906001019080831161080c575b505050505091509550955095509550505061087f565b6001016106a6565b506040805162461bcd60e51b815260206004820152601060248201526f27b93232b9103737ba103337bab7321760811b604482015290519081900360640190fd5b9193509193565b8280548282559060005260206000209081019282156108c1579160200282015b828111156108c15782518255916020019190600101906108a6565b506108cd9291506108d1565b5090565b6108eb91905b808211156108cd57600081556001016108d7565b9056fe4974656d20617272617973206d7573742068617665207468652073616d65206c656e677468a265627a7a72315820333c1a9364bcab4d3d199552ccb6fcce9d237b4cd0834269adbae88b374f08ab64736f6c63430005100032",
  "source": "// SPDX-License-Identifier: MIT\r\npragma solidity ^0.5.16;\r\n\r\ncontract Orders2 {\r\n    // Struct to represent an Item\r\n    struct Order {\r\n        uint256 order_id;\r\n        uint256 order_cost;\r\n        uint256[] items;  // Array to store items, where each item is represented as 100 * item_id + item_quantity\r\n    }\r\n\r\n    // Mapping to store orders for each user (address => Order[])\r\n    mapping(address => Order[]) public userOrders;\r\n    mapping(address => uint256) public orderCount;\r\n\r\n    address payable public recipient = 0xA549654Aff0A201bE3061118497594e17316A1Fc; // Replace with actual recipient\r\n\r\n\r\n    // Event to log the creation of an order\r\n    event OrderCreated(address indexed user, uint256 order_id);\r\n\r\n    // Function to create an order for the caller\r\n    function createOrder(\r\n        uint256[] memory _item_ids,\r\n        uint256[] memory _item_quantities,\r\n        uint256[] memory _item_cost\r\n        ) public payable {\r\n        // Ensure that the arrays for item_ids and item_quantities have the same length\r\n        require(\r\n            _item_ids.length == _item_quantities.length,\r\n            \"Item arrays must have the same length\"\r\n        );\r\n\r\n        orderCount[msg.sender]+=1;\r\n\r\n        // Create a new empty order\r\n        userOrders[msg.sender].push(Order({\r\n            order_id: orderCount[msg.sender],\r\n            order_cost: 0,\r\n            items: new uint256[](0)  // Initialize an empty array for items\r\n        }));\r\n\r\n        // Get a reference to the newly created order\r\n        Order storage newOrder = userOrders[msg.sender][userOrders[msg.sender].length - 1];\r\n\r\n        uint256 totalCost = 0;\r\n\r\n        // Add items to the order (each item stored as 100 * item_id + item_quantity)\r\n        for (uint256 i = 0; i < _item_ids.length; i++) {\r\n            uint256 itemValue = 100 * _item_ids[i] + _item_quantities[i];\r\n            totalCost += (_item_cost[i] * _item_quantities[i]);\r\n            newOrder.items.push(itemValue);\r\n        }\r\n        newOrder.order_cost = totalCost;\r\n        totalCost = (totalCost * 1 ether) / 230508; // Convert ETH to Wei\r\n\r\n        // Ensure the sender has sent enough Ether to cover the order cost\r\n        require(msg.value >= totalCost, \"Insufficient funds sent\");\r\n\r\n        // ✅ Transfer ETH to recipient\r\n        (bool sent, ) = recipient.call.value(totalCost)(\"\");\r\n        require(sent, \"Transfer to recipient failed\");\r\n\r\n\r\n        // Emit an event that the order was created successfully\r\n        emit OrderCreated(msg.sender, orderCount[msg.sender]);\r\n    }\r\n\r\n\r\n    // Function to display a user's order by order_id\r\n    function displayOrder(uint256 _order_id) public view returns (uint256 order_id,uint256 order_cost, uint256[] memory items,uint256 total_order_count) {\r\n        // Find the order by order_id\r\n        address _user = msg.sender;\r\n\r\n        for (uint256 i = 0; i < userOrders[_user].length; i++) {\r\n            if (userOrders[_user][i].order_id == _order_id) {\r\n                // Return the order cost and items if the order is found\r\n                return (userOrders[_user][i].order_id,userOrders[_user][i].order_cost, userOrders[_user][i].items,orderCount[_user]);\r\n            }\r\n        }\r\n\r\n        // If no order is found with the given order_id, return zeroes\r\n        revert(\"Order not found.\");\r\n    }\r\n}\r\n",
  "sourcePath": "D:\\V_summer_internship\\internship-main\\contracts\\Orders2.sol",
  "compiler": {
    "name": "solc",
    "version": "0.5.16+commit.9c3226ce.Emscripten.clang"
  },
  "schemaVersion": "3.4.16",
  "updatedAt": "2025-02-11T22:17:21.116Z",
  "networkType": "ethereum",
  "devdoc": {
    "methods": {}
  },
  "userdoc": {
    "methods": {}
  }
}