{
  "contractName": "Login",
  "abi": [
    {
      "anonymous": false,
      "inputs": [
        {
          "indexed": true,
          "internalType": "address",
          "name": "userId",
          "type": "address"
        }
      ],
      "name": "LoginSuccessful",
      "type": "event"
    },
    {
      "anonymous": false,
      "inputs": [
        {
          "indexed": true,
          "internalType": "address",
          "name": "userId",
          "type": "address"
        },
        {
          "indexed": false,
          "internalType": "uint256",
          "name": "userSno",
          "type": "uint256"
        },
        {
          "indexed": false,
          "internalType": "string",
          "name": "name",
          "type": "string"
        }
      ],
      "name": "UserRegistered",
      "type": "event"
    },
    {
      "constant": false,
      "inputs": [
        {
          "internalType": "string",
          "name": "_passwordHash",
          "type": "string"
        },
        {
          "internalType": "string",
          "name": "_name",
          "type": "string"
        }
      ],
      "name": "register",
      "outputs": [],
      "payable": false,
      "stateMutability": "nonpayable",
      "type": "function"
    },
    {
      "constant": true,
      "inputs": [
        {
          "internalType": "string",
          "name": "_passwordHash",
          "type": "string"
        }
      ],
      "name": "login",
      "outputs": [
        {
          "internalType": "bool",
          "name": "",
          "type": "bool"
        }
      ],
      "payable": false,
      "stateMutability": "view",
      "type": "function"
    },
    {
      "constant": true,
      "inputs": [],
      "name": "getUserDetails",
      "outputs": [
        {
          "internalType": "uint256",
          "name": "",
          "type": "uint256"
        },
        {
          "internalType": "address",
          "name": "",
          "type": "address"
        },
        {
          "internalType": "string",
          "name": "",
          "type": "string"
        }
      ],
      "payable": false,
      "stateMutability": "view",
      "type": "function"
    }
  ],
  "bytecode": "0x608060405234801561001057600080fd5b5061092c806100206000396000f3fe608060405234801561001057600080fd5b50600436106100415760003560e01c80633a7d280c146100465780633ffbd47f14610100578063942886be1461022f575b600080fd5b6100ec6004803603602081101561005c57600080fd5b81019060208101813564010000000081111561007757600080fd5b82018360208201111561008957600080fd5b803590602001918460018302840111640100000000831117156100ab57600080fd5b91908080601f0160208091040260200160405190810160405280939291908181526020018383808284376000920191909152509295506102cf945050505050565b604080519115158252519081900360200190f35b61022d6004803603604081101561011657600080fd5b81019060208101813564010000000081111561013157600080fd5b82018360208201111561014357600080fd5b8035906020019184600183028401116401000000008311171561016557600080fd5b91908080601f01602080910402602001604051908101604052809392919081815260200183838082843760009201919091525092959493602081019350359150506401000000008111156101b857600080fd5b8201836020820111156101ca57600080fd5b803590602001918460018302840111640100000000831117156101ec57600080fd5b91908080601f016020809104026020016040519081016040528093929190818152602001838380828437600092019190915250929550610488945050505050565b005b61023761064f565b60405180848152602001836001600160a01b03166001600160a01b0316815260200180602001828103825283818151815260200191508051906020019080838360005b8381101561029257818101518382015260200161027a565b50505050905090810190601f1680156102bf5780820380516001836020036101000a031916815260200191505b5094505050505060405180910390f35b3360009081526001602052604081205460ff1661032a576040805162461bcd60e51b81526020600482015260146024820152732ab9b2b9103737ba103932b3b4b9ba32b932b21760611b604482015290519081900360640190fd5b816040516020018082805190602001908083835b6020831061035d5780518252601f19909201916020918201910161033e565b6001836020036101000a03801982511681845116808217855250505050505090500191505060405160208183030381529060405280519060200120600080336001600160a01b03166001600160a01b03168152602001908152602001600020600201604051602001808280546001816001161561010002031660029004801561041d5780601f106103fb57610100808354040283529182019161041d565b820191906000526020600020905b815481529060010190602001808311610409575b50509150506040516020818303038152906040528051906020012014610480576040805162461bcd60e51b815260206004820152601360248201527224b731b7b93932b1ba103830b9b9bbb7b9321760691b604482015290519081900360640190fd5b506001919050565b3360009081526001602052604090205460ff16156104ed576040805162461bcd60e51b815260206004820152601860248201527f5573657220616c726561647920726567697374657265642e0000000000000000604482015290519081900360640190fd5b600280546001908101808355604080516080810182529182523360208084018281528484018981526060860189905260009384528383529390922084518155915194820180546001600160a01b0319166001600160a01b03909616959095179094559051805192949193610567939285019291019061082b565b506060820151805161058391600384019160209091019061082b565b5050336000818152600160208181526040808420805460ff1916909317909255600254825181815280830184815288519482019490945287519596507fbc6cd93a5a69dae46517fc4b81c3c705973b0fabb816aae5d0ff7a077c4d5d1895919488949193919260608501928601918190849084905b838110156106105781810151838201526020016105f8565b50505050905090810190601f16801561063d5780820380516001836020036101000a031916815260200191505b50935050505060405180910390a25050565b33600090815260016020526040812054819060609060ff166106af576040805162461bcd60e51b81526020600482015260146024820152732ab9b2b9103737ba103932b3b4b9ba32b932b21760611b604482015290519081900360640190fd5b6106b76108a9565b33600090815260208181526040918290208251608081018452815481526001808301546001600160a01b0316828501526002808401805487516101009482161594909402600019011691909104601f810186900486028301860187528083529295939493860193919290918301828280156107735780601f1061074857610100808354040283529160200191610773565b820191906000526020600020905b81548152906001019060200180831161075657829003601f168201915b505050918352505060038201805460408051602060026001851615610100026000190190941693909304601f81018490048402820184019092528181529382019392918301828280156108075780601f106107dc57610100808354040283529160200191610807565b820191906000526020600020905b8154815290600101906020018083116107ea57829003601f168201915b50505091909252505081516020830151606090930151909792965094509092505050565b828054600181600116156101000203166002900490600052602060002090601f016020900481019282601f1061086c57805160ff1916838001178555610899565b82800160010185558215610899579182015b8281111561089957825182559160200191906001019061087e565b506108a59291506108da565b5090565b60405180608001604052806000815260200160006001600160a01b0316815260200160608152602001606081525090565b6108f491905b808211156108a557600081556001016108e0565b9056fea265627a7a72315820e799a9ed038aa9334c331399924883377cf47689a6bf5cb7082f84a869511cac64736f6c63430005100032",
  "source": "// SPDX-License-Identifier: MIT\r\npragma solidity ^0.5.16;\r\n\r\ncontract Login {\r\n    struct User {\r\n        uint256 userSno;\r\n        address userId;\r\n        string passwordHash; // Store a hashed password for security\r\n        string name;\r\n    }\r\n\r\n    mapping(address => User) private users;\r\n    mapping(address => bool) private registeredUsers; // To check if the user is registered\r\n    uint256 private userCount; // To assign unique userSno\r\n\r\n    event UserRegistered(address indexed userId, uint256 userSno, string name);\r\n    event LoginSuccessful(address indexed userId);\r\n    \r\n    // Modifier to check if a user is already registered\r\n    modifier onlyNewUser() {\r\n        require(!registeredUsers[msg.sender], \"User already registered.\");\r\n        _;\r\n    }\r\n\r\n    // Function to register a new user\r\n    function register(string memory _passwordHash, string memory _name) public onlyNewUser {\r\n        userCount++;\r\n        users[msg.sender] = User(userCount, msg.sender, _passwordHash, _name);\r\n        registeredUsers[msg.sender] = true;\r\n\r\n        emit UserRegistered(msg.sender, userCount, _name);\r\n    }\r\n\r\n    // Function to verify login\r\n    function login(string memory _passwordHash) public view returns (bool) {\r\n        require(registeredUsers[msg.sender], \"User not registered.\");\r\n        require(keccak256(abi.encodePacked(users[msg.sender].passwordHash)) == keccak256(abi.encodePacked(_passwordHash)), \"Incorrect password.\");\r\n\r\n        return true;\r\n    }\r\n\r\n    // Function to get user details (only for registered users)\r\n    function getUserDetails() public view returns (uint256, address, string memory) {\r\n        require(registeredUsers[msg.sender], \"User not registered.\");\r\n        User memory user = users[msg.sender];\r\n        return (user.userSno, user.userId, user.name);\r\n    }\r\n}\r\n",
  "sourcePath": "D:\\V_summer_internship\\internship-main\\contracts\\Login.sol",
  "compiler": {
    "name": "solc",
    "version": "0.5.16+commit.9c3226ce.Emscripten.clang"
  },
  "schemaVersion": "3.4.16",
  "updatedAt": "2025-02-11T22:17:21.437Z",
  "networkType": "ethereum",
  "devdoc": {
    "methods": {}
  },
  "userdoc": {
    "methods": {}
  }
}